:020000040800F2
:10000000200500209D010008310A0008770900083A
:10001000D509000825070008431900080000000062
:10002000000000000000000000000000D90C0008E3
:1000300029070008000000003D0B0008610E0008C1
:10004000B7010008B7010008B7010008B7010008B0
:10005000B7010008B7010008B7010008B7010008A0
:10006000B7010008B7010008B7010008B701000890
:10007000B7010008B7010008B7010008B701000880
:10008000B7010008B7010008B7010008B701000870
:10009000B7010008B7010008B7010008B701000860
:1000A000B7010008B7010008B7010008B701000850
:1000B000B7010008ED10000809110008B701000899
:1000C000B7010008B7010008B7010008B701000830
:1000D000B7010008D5150008B7010008B7010008EE
:1000E000B7010008B7010008B7010008B701000810
:1000F00051120008B7010008B7010008B701000855
:10010000B7010008B7010008B7010008B7010008EF
:10011000B7010008B7010008B7010008B7010008DF
:10012000B7010008B7010008B7010008B7010008CF
:10013000B7010008B7010008B7010008B7010008BF
:10014000B7010008B7010008B7010008B7010008AF
:10015000B7010008B7010008B7010008B70100089F
:10016000B7010008B7010008B7010008B70100088F
:10017000B7010008B7010008B7010008B70100087F
:10018000B7010008B7010008DFF80CD000F02AFA28
:100190000048004739230008200500200648804712
:1001A00006480047FEE7FEE7FEE7FEE7FEE7FEE75C
:1001B000FEE7FEE7FEE7FEE7A10E00088901000862
:1001C00000F0004230F000400AD0C10D01F560712E
:1001D000C0F3160042EA0151C208400711437047BC
:1001E00000200146704730B50B4601460020202212
:1001F000012409E021FA02F59D4205D303FA02F534
:10020000491B04FA02F52844151EA2F10102F1DC93
:1002100030BD2DE9F05F0546002092469B4688469A
:100220000646814640241BE0284641464746224672
:1002300000F0F9F953465A46C01A914110D31146BD
:100240001846224600F0E0F92D1A67EB01084F46E8
:1002500022460120002100F0D7F917EB00094E419A
:10026000201EA4F10104DFDC484631462A464346FD
:10027000BDE8F09F2DE9FE4F804681EA0300C00FE4
:100280000C46009021F0004123F00045B8EB02003D
:10029000A94105D24046214690461C460B460246DF
:1002A00023F00040104347D0270DC7F30A00C3F3E3
:1002B0000A510290401A019040286BDAC3F31300F0
:1002C00040F4801B0098924620B10023D2EB030A31
:1002D00063EB0B0B01985946C0F14002504600F009
:1002E00093F906460D4650465946019A00F0ABF97F
:1002F00010EB08006141002487EA115284EAE77399
:100300001A4340D0009A62B3019A012A4FEA075279
:1003100015DC001B61EB02014FF0004202EA0752BC
:10032000CDE90042001C41F5801132462B4600F019
:10033000ABF903B0BDE8F08F40462146F9E7001B5A
:1003400061EB0201001C41F5801300185B4120188D
:10035000A2F5001747EB030140EAD570B6196D41CD
:1003600011E06D084FEA360645EAC0754FEA0752BC
:10037000001B61EB0201001C41F5801149084FEAA6
:1003800030000019514132462B4603B0BDE8F04F12
:1003900000F06BB90098012240000023D0EB02026C
:1003A00063EBE073009821464FEAE074B8EB00007D
:1003B00061EB0401E9E783F000435BE781F0004172
:1003C00058E72DE9FE4F81EA030404F0004421F0D0
:1003D000004100944FF0000B23F0004350EA010469
:1003E0005ED052EA03045BD0C3F30A54C1F30A554A
:1003F0002C44A4F2F3340194A0FB0254C1F3130182
:1004000041F48011C3F3130343F4801301FB02444E
:1004100000FB034E840A970A44EA815447EA835753
:10042000A4FB076802958D0A05FB07854FEA932C0C
:1004300004FB0C542705029D4FEA065847EA16377D
:10044000B5EB08056EEB070C870E920E47EA811795
:1004500042EA8312A7FB0201B6EB0B0164EB000436
:100460002B0D43EA0C335E1844EB1C50DA46514620
:10047000E7FB0201C5F313044FEA0B3343EA1453BD
:100480004FEA0432019C43EA0603A4F10C040294EF
:10049000009CCDE900B400F0F7F803B0BDE8F08FA0
:1004A00000200146F9E72DE9F04D81EA030404F04C
:1004B000004B21F0004514464FF0000A23F00041A4
:1004C00050EA050220D054EA01021DD0C5F30A57B4
:1004D0000246C5F31303C1F31300C1F30A5640F4F7
:1004E000801543F48013A7EB0608101BD64608F2CC
:1004F000FD3873EB050002D308F1010801E0921802
:100500005B41B8F1000F03DA00200146BDE8F08D31
:1005100000204FF48011064684460EE0171B73EB53
:10052000050705D3121B63EB050306434CEA010CD8
:1005300049084FEA300092185B4150EA0107EDD1BB
:1005400052EA030012D082EA040083EA050108435C
:1005500005D0101BAB4106D20122002306E0002289
:100560004FF0004302E06FF0010253101AEB060057
:100570004CEB085110EB0A0041EB0B01BDE8F04DCC
:1005800000F073B8C1F30A52C1F3130140F2FF3314
:1005900041F480119A4202DA00200146704740F28D
:1005A00033439A42A2F2334202DC524200F03BB89B
:1005B00000F02AB830B5041E71F1000404DB4FF0DE
:1005C0000044404264EB0101141E73F1000405DB9A
:1005D0001C464FF00043524263EB0403994208BFAC
:1005E000904230BD064C074D06E0E06840F0010344
:1005F00094E8070098471034AC42F6D3FFF7C8FDE3
:10060000C4240008E4240008202A04DB203A00FA6D
:1006100002F1002070479140C2F1200320FA03F359
:10062000194390407047202A04DB203A21FA02F057
:100630000021704721FA02F3D040C2F1200291401C
:10064000084319467047202A06DBCB17203A41FAA7
:1006500002F043EAE07306E041FA02F3D040C2F14F
:100660002002914008431946704710B5141E73F1DB
:10067000000408DA401C41F1000192185B411A4362
:1006800001D120F0010010BD2DE9F04D92469B46AE
:1006900011B1B1FA81F202E0B0FA80F22032904654
:1006A000FFF7B2FF04460F4640EA0A0041EA0B0199
:1006B00053465A46084313D0114653EA010019D055
:1006C000C8F140025046FFF7AEFF05460E465046C1
:1006D00059464246FFF798FF084305D0012004E041
:1006E00020463946BDE8F08D0020054346EAE07615
:1006F0002C4337430A986305E40AA0EB0800002264
:10070000FD0A44EA47540A3002D500200146E9E7D1
:10071000010510196941DDE9084500196941BDE885
:10072000F04DA2E700BFFEE77047000000B589B0BA
:100730000121022000F014FA0121084600F000FA1D
:1007400002220621244800F0F1F802220721224863
:1007500000F0ECF8C020019002208DF80800032082
:100760008DF8090000208DF80A008DF80B0001A912
:10077000194800F093F806A800F022FF4FF6FF702A
:1007800007900020ADF81800ADF82000ADF81A0071
:1007900006A9124800F0D2FE00231A4603210F4892
:1007A00000F091FD0A20ADF8140003A90B4800F0F9
:1007B000BCFD0121094800F065FD012211460748F2
:1007C00000F0F3FD0021054800F089FE01210348F7
:1007D00000F05EFD09B000BD0000024000040040D2
:1007E00000B589B00121022000F0CAF901210420DE
:1007F00000F0A6F903220621264800F097F803220C
:100800000721244800F092F8C020019002208DF8C2
:10081000080003208DF8090000208DF80A0001204F
:100820008DF80B0001A91B4800F038F806A800F06D
:10083000C7FE4FF6FF7007900020ADF81800ADF826
:100840002000ADF81A0006A9134800F077FE002337
:100850001A460321104800F036FD03A800F09CFD65
:100860000A20ADF8140003A90B4800F05EFD012139
:10087000094800F007FD01221146074800F095FDE8
:100880000021054800F02BFE0121034800F000FD87
:1008900009B000BD0008024000040140F0B50A465E
:1008A00000210023002400BF3DE0012505FA01F3EB
:1008B000156805EA03049C4234D105684F000326FD
:1008C000BE40B543056015794E00B5400668354316
:1008D00005601579012D02D01579022D16D1856894
:1008E0004F000326BE40B543856055794E00B540A4
:1008F000866835438560456801268E40B54345606E
:10090000456896798E40B6B235434560C5684F005C
:100910000326BE40B543C560D5794E00B540C668D4
:100920003543C560491C1029BFD3F0BDF0B5002385
:1009300000244D07ED0E02FA05F3CE1000F120055C
:1009400055F826504E07F70E0F26BE40B543CF1080
:1009500000F1200646F82750CE1000F1200555F88A
:10096000265045EA0304CE1000F1200545F8264044
:10097000F0BD0183704700BFFEE700001CB50121F8
:10098000202000F0DDF801208DF8040040020090E6
:1009900003208DF8050000208DF8060001208DF859
:1009A000070069460A48FFF779FF4FF400710848CD
:1009B000FFF7DFFF4FF48060009069460448FFF7BF
:1009C0006DFF4FF480610248FFF7D3FF1CBD0000AC
:1009D0000014024000BFFEE71CB50121022000F018
:1009E000AFF801208DF804004FF470400090032010
:1009F0008DF8050000208DF8060001208DF8070015
:100A000069460848FFF74AFF002007490860074980
:100A1000C1F8BC020449091F08600449C1F8B002CA
:100A20001CBD000000040240B882404200804042E9
:100A3000704708B54FF4A06000F076F81E208DF8DE
:100A4000000001208DF8010002208DF80200012035
:100A50008DF80300684600F02BF825208DF8000083
:100A600001208DF801008DF802008DF80300684622
:100A700000F01EF82C208DF8000003208DF80100F6
:100A80008DF8020001208DF80300684600F010F890
:100A90001D208DF8000003208DF8010002208DF844
:100AA000020001208DF80300684600F001F808BD3F
:100AB00070B5002100230F22C4781CB3174C2468A2
:100AC00004F4E064C4F5E064C4F30721C1F1040454
:100AD000E3B20A4144789C40E1B284781440214357
:100AE0000C07210E0E4C05786155047804F01F05A3
:100AF0000124AC4005786D11AD0005F1E025C5F885
:100B0000004109E0047804F01F050124AC40054DC4
:100B10000678761145F8264070BD00000CED00E027
:100B200000E400E080E100E002490143024A116074
:100B3000704700000000FA050CED00E0704700006F
:100B400029B1064A12680243044B1A6004E0034AC2
:100B500012688243014B1A6070470000303802402F
:100B600029B1064A12680243044B1A6004E0034AA2
:100B700012688243014B1A607047000040380240FF
:100B800029B1064A12680243044B1A6004E0034A82
:100B900012688243014B1A607047000044380240DB
:100BA000F0B5002100220024022500260223324F46
:100BB0003F6807F00C0121B1042905D0082937D17D
:100BC00005E02E4F076036E02D4F076033E02A4FD7
:100BD0003F1F3F68C7F38056274F3F1F3F6807F00E
:100BE0003F036EB1264FB7FBF3F7DFF88CC0ACF1D3
:100BF000040CDCF800C0CCF3881C07FB0CF40CE000
:100C00001E4FB7FBF3F7DFF870C0ACF1040CDCF853
:100C100000C0CCF3881C07FB0CF4174F3F1F3F6844
:100C2000C7F301477F1C7D00B4FBF5F7076002E0C6
:100C3000124F076000BF00BF0F4F3F6807F0F00181
:100C40000909104F7A5C0768D74047600A4F3F6830
:100C500007F4E051890A0B4F7A5C4768D7408760F8
:100C6000054F3F6807F46041490B064F7A5C4768BF
:100C7000D740C760F0BD0000083802400024F400EF
:100C800000127A00140000200146022904D0032932
:100C900009D0042915D10DE00C4A126810B20022C7
:100CA0000A4B1A600FE00A4A126810B20022084B81
:100CB0001A6008E0074A126810B20022054B1A6059
:100CC00001E0002000BF00BF704700002404014085
:100CD0002404004024080040704700000CB50020A8
:100CE000019000903448006840F480303249086038
:100CF00000BF3148006800F4003000900198401CAB
:100D00000190009818B90198B0F5A04FF1D12A4888
:100D1000006800F4003010B10120009001E00020D4
:100D200000900098012846D123484030006840F0E8
:100D300080502149403108602048006840F440401C
:100D40001E4908601C48083000681B4908310860CB
:100D50000846006840F4004008600846006840F417
:100D6000A05008601648091F0860081F006840F07E
:100D70008070091F086000BF0F48006800F0007015
:100D80000028F9D040F205700E4908600A48083082
:100D9000006820F003000849083108600846006830
:100DA00040F00200086000BF03480830006800F00F
:100DB0000C000828F8D10CBD00380240007000403B
:100DC00008544007003C024000B503460A46002B89
:100DD00007DA01201549086000201549C1F8B8025A
:100DE00006E000201149086001201149C1F8B8024D
:100DF000184601F00DFB0F494863002A08DA00206D
:100E00000A490839086001200949C1F8B00207E021
:100E1000012006490839086000200549C1F8B002E0
:100E2000104601F0F5FA0349086400BDBC82404257
:100E30000080404200000140042808D14FF0E0212A
:100E4000096941F004014FF0E022116107E04FF021
:100E5000E021096921F004014FF0E022116170479F
:100E60007047000010B504466FF00400FFF7E4FF80
:100E7000E11704EB5171C1F3C701074A1170104625
:100E8000007800EB4001C1EBC0104FF6FF7101EAA2
:100E9000C0000249088010BD240000202600002068
:100EA00010B51548006840F47000134908601348F5
:100EB000006840F001001149086000200F49083126
:100EC00008600E4800680E4908400C4908600D484B
:100ED000091D0860081F006820F48020091F0860B1
:100EE000002006490C310860FFF7F8FE4FF0006063
:100EF00001498039086010BD88ED00E000380240EB
:100F0000FFFFF6FE10300024F0B50C461546002118
:100F10000022068C4FF6FE773E400684018B028C41
:100F20004FF60C7631407E1C06EA03162E43314301
:100F30004FF6F576324044F00106324301830284D5
:100F4000F0BDF0B50C461546002100220026078CA6
:100F50004FF6EF7C07EA0C070784018B028C4FF6F3
:100F6000FF7707EA041640F6FF4739404FF6FF7750
:100F700007EA033739434FF6FF7707EA0527394376
:100F80004FF65F773A4046F010073A4301830284F8
:100F9000F0BDF0B50C461546002100220026078C56
:100FA0004FF6FF6C07EA0C070784818B028C4FF623
:100FB000FF7707EA04264FF60C7739404FF6FF77A4
:100FC00007EA03172F4339434FF2FF573A4046F4DD
:100FD00080773A4381830284F0BDF0B50C46154614
:100FE000002100220026078C4EF6FF7C07EA0C0742
:100FF0000784818B028C4FF6FF7707EA043640F6B0
:10100000FF4739404FF6FF7707EA052739434FF688
:10101000FF7707EA0337394345F6FF773A4046F44E
:1010200080573A4381830284F0BD000030B58BB015
:1010300005460C4601210846FFF782FD01210846BE
:10104000FFF79EFD012208212648FFF76FFC0122D1
:101050000B212448FFF76AFC02208DF808004FF4AA
:101060001060019003208DF8090000208DF80A001F
:1010700001208DF80B0001A91A48FFF70FFC099514
:10108000ADF820400020ADF82800ADF8220008A9F6
:10109000154800F053FA6020ADF80C000020ADF8C0
:1010A00018000120ADF80E0003A90F4800F086F9E2
:1010B00003A90D4800F0CAF901210B4800F0F4F82B
:1010C0000821094800F0B8F90821074800F0FAF9AA
:1010D0000121054800F0CAF80121034800F0D8F8C2
:1010E0000BB030BD00000240000001400548008800
:1010F00000F0010028B10348008820F001000149F8
:1011000008807047100400402DE9F04101212F486C
:1011100000F0FAF8002853D001212C4800F0B5F86F
:101120000220FFF7B1FD47420320FFF7ADFD3E1857
:1011300006EBD6704410254641F27070604340F2D1
:10114000F46190FBF1F000EE100AB8EEC00A2048FE
:1011500080ED000A2C4641F27070684390FBF1F07C
:1011600000EE100AB8EEC00A1A4880ED000A1A48CC
:10117000D0ED000A174890ED000A01F051F9BDEEDC
:10118000C00A164880ED000A1348D0ED000A104846
:1011900090ED000A01F044F9BDEEC00A104880ED60
:1011A000000A00680F4908600C4800680E49086092
:1011B00000F0CAFB0C4801680A480068FFF704FE0B
:1011C0000121024800F061F8BDE8F081000800400C
:1011D0000400002000000020380000203000002023
:1011E00034000020080000200C0000207FB50546D8
:1011F0000C4601210420FFF7B3FC0295ADF8044032
:101200000020ADF80C00ADF8060001A90F4800F071
:1012100095F9012211460D4800F0C7F801210B484D
:1012200000F033F81E208DF8000002208DF8010038
:1012300003208DF8020001208DF803006846FFF7B7
:1012400037FC0121014800F023F87FBD0008004071
:101250000548008800F0010028B10348008820F00C
:1012600001000149088070471004014021B1028843
:1012700042F08002028004E002884FF67F731A4039
:1012800002807047CA4302827047CA430282704795
:1012900021B1028842F00102028004E002884FF688
:1012A000FE731A400280704731B1B0F8442042F416
:1012B0000042A0F8442005E0B0F84420C2F30E023A
:1012C000A0F844207047F0B50C4615461E46002194
:1012D000002200230189028B038C4FF6F8773940F6
:1012E00021434FF6FC473A4040F201173A434FF68C
:1012F000DD773B404FF6FF7707EA06172F433B4366
:10130000018102830384F0BD30B502460020002332
:101310000024158A05EA0103958905EA010413B141
:101320000CB1012000E0002030BD70B505460C4630
:10133000208850B92389A28861882846FFF7E4FDF8
:10134000E188284600F0CDF825E0208804280AD15D
:101350002389A28861882846FFF7F3FDE1882846A3
:1013600000F0C8F817E0208808280AD12389A2884D
:1013700061882846FFF70DFEE188284600F0C7F88F
:1013800009E02389A28861882846FFF726FEE188C4
:10139000284600F0C5F870BD002101804180012180
:1013A00081800021C180018170471AB183890B437C
:1013B000838102E083898B438381704770B5002469
:1013C00000220023058C4FF6FE7635400584028C02
:1013D0008388048B4FF68F752C40B51E2C400D88EA
:1013E0002C43751E2A408D892A434D882A43104D6F
:1013F000A84202D00F4DA84213D14FF6F7752A40EC
:10140000CD892A434FF6FB752A408D882A434FF633
:10141000FF652B404FF6FF552B400D8A2B434D8A1D
:101420002B43838004838D684563028470BD000074
:1014300000000140000401400A460021018B4FF6E4
:10144000F7731940114301837047000070B5002203
:1014500000230024058C4EF6FF7635400584038C6E
:101460008488828B48F6FF752A404FF6FF452A4054
:101470000D884FF6FF7606EA05252A434DF6FF75DF
:101480002B408D8906EA05352B434D8806EA053544
:101490002B430A4DA84202D0094DA84208D14BF671
:1014A000FF752C400D8A4FF6FF7606EA85152C4312
:1014B000848082838D680564038470BD00000140D0
:1014C000000401400A460021818B4FF2FF7319404E
:1014D0004FF6FF7303EA0223194381837047416289
:1014E0007047028B4FF6F3731A400283028B0A4354
:1014F00002837047028B4FF2FF331A400283028B44
:101500004FF6FF7303EA01231A4302837047828B6D
:101510004FF6F3731A408283828B0A4382837047AB
:10152000828B4FF2FF331A408283828B4FF6FF7318
:1015300003EA01231A4382837047000000220288D5
:10154000184B98420ED0184B98420BD0B0F1804FF8
:1015500008D0164B984205D0154B984202D0154B37
:10156000984204D14FF68F731A404B881A43124B9E
:10157000984207D0114B984204D04FF6FF431A40CF
:101580000B891A4302804B68C3620B880385054BA5
:10159000984202D0044B984201D18B7A03860123F2
:1015A00083827047000001400004014000040040B5
:1015B00000080040000C00400010004000140040F3
:1015C0004FF0FF3141600021018001814180817233
:1015D0007047000070B50025002640F225513948BB
:1015E00000F0ECF810B3374800F0A2F9C4B2364866
:1015F000008800F40040C8B93348008800F48040F7
:1016000060B10A2C03D000202F49088020E02E482A
:10161000008840F400402C49088019E00D2C06D1C8
:101620002948008840F480402749088010E0264877
:101630000088C0F30D0025490C5423480088401C45
:101640002149088008460088C72801DD002008805D
:101650001D48008800F4004098B39FED1D0A1D4806
:1016600080ED000A18480088C0F30D001A49088070
:10167000164800782D2805D14FF0FF301749086033
:10168000012503E0012015490860002508E00F4806
:10169000405D06EB860100EB4100A0F130066D1CB9
:1016A0000D4800888542F2DB0C480068704300EE6C
:1016B000100AB8EEC00A074880ED000A002002496F
:1016C000088070BD00100140280000205400002058
:1016D00000000000380000202A0000202C0000201C
:1016E00010B586B0044601210846FFF729FA01210A
:1016F0001020FFF745FA072209211D48FFF716F9C8
:1017000007220A211A48FFF711F94FF4C06004902C
:1017100002208DF814008DF8150000208DF81600B9
:1017200001208DF8170004A91148FFF7B7F80094BD
:101730000020ADF80400ADF80600ADF80800ADF8E3
:101740000C000C20ADF80A0069460A4800F086F843
:101750000121084800F019F84021064800F00CF873
:10176000012240F22551034800F052F806B010BDA6
:10177000000002400010014001F40072B2F5007F49
:1017800000D100BFCA430280704721B1828942F470
:101790000052828104E082894DF6FF731A408281F3
:1017A000704702460020B1F5007F00D100BF1388CA
:1017B0000B400BB1012000E00020704770B50246DD
:1017C000002400230025002040F66A16B14200D113
:1017D00000BFC1F3421501F01F03012606FA03F30F
:1017E000012D02D19689334006E0022D02D1168ADE
:1017F000334001E0968A33400C12012606FA04F4C5
:101800001688344013B10CB1012000E0002070BDF7
:10181000F0B50346002400260025002040F66A1794
:10182000B94200D100BF1846C1F3421401F01F06AF
:10183000012707FA06F5012C01D10C3004E0022C37
:1018400001D1103000E014301AB107682F4307604F
:1018500002E00768AF430760F0BD00002DE9FF47D5
:1018600005460E460024A14600BFA046B08900B13F
:1018700000BF2C8A24F44054F08804432C82AC89A5
:1018800041F20C608443B088318908437189084370
:101890000443AC81AC8A24F44074B0890443AC8224
:1018A0006846FFF77DF92048854202D01F488542EF
:1018B00002D1DDF80C9001E0DDF80890A88900F471
:1018C000004040B109EBC90000EB09103168490044
:1018D000B0FBF1F707E009EBC90000EB0910316834
:1018E0008900B0FBF1F76420B7FBF0F00401200998
:1018F000642101FB1078A88900F4004040B1322037
:1019000000EBC800B0FBF1F000F00700044308E072
:10191000322000EB08106421B0FBF1F000F00F0062
:1019200004432C81BDE8FF870010014000140140F2
:1019300001468888C0F308007047C1F3080282801E
:10194000704700BFFEE70000114800681149884257
:1019500002DA08460E4908600D48006842F20801A4
:10196000884202DD08460A4908600B4800680949B8
:10197000884202DA0846084908600748006842F2CF
:101980000801884202DD08460349086070470000EC
:1019900008000020F8DFFFFF0C0000200FB4054B0B
:1019A00010B503A9044A029800F0DAF810BC5DF8FB
:1019B00014FB0000152300085000002002E008C8B6
:1019C000121F08C1002AFAD170477047002001E0B9
:1019D00001C1121F002AFBD1704700002DE9FF5FF3
:1019E00082B00021DDE90430020DDDF840B0034390
:1019F00018D044F61050A2F2FF3242431514119849
:101A000001281FD0A5EB0B00401C5FEA000A4FF035
:101A100000064E4FDFF83891B046504615D5CAF152
:101A2000000413E0119801244AA3012801D16FEAB0
:101A30000B010298119AC0E90031C0E9024206B0D8
:101A4000BDE8F09FCBF10000DFE704460021404AEB
:101A5000491842EB0450CDE9001012E0E00707D02E
:101A600032463B4640464946FEF7ABFC8046894637
:101A700032463B4610461946FEF7A3FC06460F4683
:101A80006410002CEAD1DDE90401DDE90023BAF19C
:101A9000000F06DAFEF795FC42464B46FEF791FC36
:101AA00005E0FEF700FD42464B46FEF7FCFC04460F
:101AB0000E460022284BFEF77DFD03D84FF0FF3085
:101AC000014607E00022254B20463146FEF7D2FBB7
:101AD000FEF758FD102409E0002C0ADB0A2200233F
:101AE000FEF797FB039B30321A55641E50EA010241
:101AF000F2D1641C039AC4F111031444119A012A0F
:101B000003D0012208430DD10AE0084304D000208D
:101B10004FF0110B119072E7A3EB0B056D1E0DE05A
:101B20005B4504DD4FF0000205F1010504E003DA36
:101B30004FF00002A5F10105002AECD0029811999E
:101B4000C0E90231C0E9004579E700000000144017
:101B50000000F03F300000000000F0430000E03FD4
:101B60002DE9FF4F95B09B468946064600250FE2BA
:101B7000252877D100242746F84A0121059400E062
:101B8000044316F8013F203B01FA03F01042F7D15D
:101B900030782A2811D06FF02F033078A0F130026E
:101BA000092A16D8059A44F0020402EB820203EBDC
:101BB00042021044761C0590EFE759F8042B059279
:101BC000002A03DA504244F40054059044F0020421
:101BD000761C30782E2816D116F8010F44F0040434
:101BE0002A280DD06FF02F023078A0F13003092B96
:101BF00009D807EB870302EB4303C718761CF3E70A
:101C000059F8047B761C30786C280FD006DC4C2801
:101C100017D068280DD06A2814D104E0742810D099
:101C20007A280FD10DE044F400140AE044F4801443
:101C300001E044F440147278824202D104F5801429
:101C4000761C761C307866280BD013DC582877D0A9
:101C500009DC002875D04528F6D04628F4D047285E
:101C60001AD19DE118E0632835D0642879D0652821
:101C700012D195E1702873D008DC6728F1D069286B
:101C80006FD06E280DD06F2806D1B5E073282CD008
:101C9000752875D0782874D05A46179990476D1CCE
:101CA00075E1C4F30250022809D003280DD0D9F8F9
:101CB000001004280DD00D6009F1040967E1D9F87E
:101CC0000010EA17C1E90052F6E7D9F800100D80BC
:101CD000F2E70D70F0E719F8041B8DF800100020F2
:101CE0008DF80100EA46012003E059F804AB4FF0FB
:101CF000FF3061074FF0000102D40DE008F101014F
:101D00008846B9420FDA8045F8DB1AF80810002936
:101D1000F4D108E008F1010188468142FADB1AF8A3
:101D200008100029F6D105985B46A0EB080721466C
:101D30003846179A00F094FA284400EB080507E0AB
:101D40004DE029E10DE01AF8010B5A46179990472A
:101D5000B8F10108F7D25B4621463846179A13E1DD
:101D600042E00A220092C4F302524FF0000A022A13
:101D700008D059F804CB032A4FEAEC710AD00DE0E1
:101D800029E02AE009F1070121F00702F2E802C187
:101D9000914609E00FFA8CFC4FEAEC71042A03D15A
:101DA0004FFA8CFC4FEAEC71002907DA0A46002151
:101DB000DCF1000C61EB02012D2202E0220504D5CA
:101DC0002B228DF80420012203E0E20701D020221B
:101DD000F7E7904659E00A2102E010220DE01021B9
:101DE0004FF0000A00910BE010224FF0000A44F07F
:101DF00004040827009203E008224FF0000A009232
:101E0000C4F30252022A05D059F804CB0021032A58
:101E100008D009E009F1070121F00702F2E802C148
:101E2000914605E01FFA8CFC042A01D10CF0FF0C4E
:101E30004FF00008220728D5702806D0009B83F0B9
:101E4000100353EA0A0305D00EE040228DF8042067
:101E5000012208E05CEA010206D030228DF804205D
:101E60008DF8050002229046009B83F0080353EA98
:101E70000A030AD15CEA010201D1620705D53022CA
:101E80008DF804204FF001087F1E582804D034A09C
:101E900003900EA802900DE036A0F9E75346604685
:101EA000009AFEF7B6F984460398825C0298401EB9
:101EB000029002705CEA0100F0D1029806A9081AAB
:101EC00000F1200A600702D524F4803400E00127E5
:101ED000574502DDA7EB0A0000E0002000EB0A01F5
:101EE000009005984144401A0590E00306D45B46F3
:101EF0002146179A059800F0B3F90544002706E03B
:101F000001A85A46C05D179990476D1C7F1C474534
:101F1000F6DBE0030CD55B462146179A059800F0E6
:101F20009FF9054404E030205A46179990476D1CEC
:101F30000099481E00900029F5DC08E002980299FB
:101F40005A460078491C0291179990476D1CBAF1C6
:101F50000001AAF1010AF1DC65E100000928010095
:101F6000303132333435363738396162636465660F
:101F700000000000303132333435363738394142D1
:101F8000434445460000000000F058F90544761C23
:101F9000307800287FF4ECAD19B02846BDE8F08F0A
:101FA000620700D4062709F1070222F0070CFCE8BB
:101FB0000223E14603F000485FEA080C02D00FF26A
:101FC000702C0DE05FEA045C02D50FF2682C07E08C
:101FD0005FEAC47C02D00FF2602C01E0AFF2700C1B
:101FE0004FF0FF3823F00043CDF850C065280CD0E7
:101FF00006DC452809D046281DD047283DD13DE0C4
:10200000662818D067287ED138E00021112F01DB27
:10201000112000E0781CCDE9000106A90EA8FFF709
:10202000DDFCDDE90F010E9A03910021009207F11A
:10203000010A04914DE04FF000400097CDE90110F6
:1020400006A90EA8FFF7CAFCDDE90F0203920E9B5A
:1020500011990022DDF80CA00093049211B9791CAB
:1020600000EB010AB7EB0A0004D4C0F1FF3007F11E
:10207000010A0490AAEB0700019044E0012F00DA66
:1020800001270021112F01DD112000E03846CDE9A4
:10209000000106A90EA8FFF7A1FCDDE90F010E9AC9
:1020A0000391002104910092BA4621070CD40399B0
:1020B000514500DA8A46BAF1010F05DD009AAAF10E
:1020C0000101515C302908D0B84202DA10F1040F46
:1020D00006DA0121CDE9011015E0AAF10101E9E7D5
:1020E000002805DC049901440491AAEB000102E0F8
:1020F000411C514500DD8A460499401A401C01905C
:102100004FF000400290200704D40198504501DBB5
:10211000CDF8048000208DF84F0002980DF14F0794
:10212000B0F1004F25D02B200E9002984FF00208FE
:1021300000280CDA404202902D200E9007E00A2180
:102140000298FEF750F83031029007F8011DB8F1FF
:102150000001A8F10108F2DC02980028EFD1791EF5
:102160000E980870307800F0200040F0450007F825
:10217000020D12A8C01B00F107081498007800B1E6
:10218000012000EB0A01019801EBE0710598414440
:10219000401A401E0590E00306D45B462146179A7C
:1021A000059800F05DF805441498007818B15A4677
:1021B000179990476D1CE00324D55B462146179A7A
:1021C000059800F04DF805441CE00498002807DB52
:1021D000DDE90301884203DD0098405C179901E0C6
:1021E000179930205A469047049805F10105401C84
:1021F00004900198401E019004D12E205A46179950
:1022000090476D1CBAF10001AAF1010ADDDC05E07E
:1022100017F8010B5A46179990476D1CB8F1000149
:10222000A8F10108F4DC5B462146179A0598ABE655
:102230002D0000002B000000200000002DE9F041DF
:10224000044600251E461746880404D405E0394696
:102250002020B0476D1C641EF9D52846BDE8F081EA
:102260002DE9F041044600251E469046C80301D5DD
:10227000302700E02027880404D505E04146384691
:10228000B0476D1C641EF9D52846BDE8F08170B5D5
:1022900004464FF4077094FBF0F0C6B24FF4077099
:1022A00094FBF0F100FB114085B205E04FF407709C
:1022B00000F00AF8701EC6B2002EF7D115B12846FC
:1022C00000F002F870BD00000146114A12884A432E
:1022D0004FF0E0235A6100229A611A46126942F0D7
:1022E00001021A6100BF4FF0E022106900F0010204
:1022F0001AB100F48032002AF5D04FF0E0221269C2
:1023000022F001024FF0E0231A6100229A61704727
:102310002600002070B504460D46E1B20548FFF7DF
:102320000CFB00BF80210348FFF73BFA0028F9D0DF
:10233000204670BD001001402DED048B82B0A82016
:10234000FEF790FDFEF775FB4FF4E130FFF7C8F99B
:10235000FEF714FB002142F2D000FEF767FEFEF705
:102360003FFAFEF7E3F94FF47A70FFF790FFFEF7BC
:1023700033FB42F2CF016420FEF738FF2AE0164813
:102380000068401C1449086008460068142190FB4E
:10239000F1F201FB1200D0B91048006808B9012021
:1023A00000E000200D4908600D480068FDF708FFB7
:1023B00041EC190B0B480068FDF702FF41EC180BCC
:1023C0008DED009B53EC182B07A0FFF7E7FA0A20CE
:1023D000FFF75DFFD3E7000010000020A482424217
:1023E0000400002000000020456E636F6465725F8A
:1023F0004C6566743D252E32662C456E636F6465B0
:10240000725F52696768743D252E32660A000000CB
:102410000146002901DA484200E008467047000002
:10242000B0EE401A30EEC10A1F4880ED000A1F4886
:1024300090ED000A1C48D0ED001A30EE210A1B482E
:1024400080ED000A90ED000ADFED191AB4EEE10A02
:10245000F1EE10FA03DD9FED160A80ED000A134835
:1024600090ED000ADFED131AB4EEE10AF1EE10FA76
:1024700003D29FED100A80ED000A0B4890ED000A90
:102480000D48D0ED001A20EE210A0848D0ED001AC0
:102490000A4890ED002A01EE820A094880ED000A00
:1024A00090ED000A70470000480000204C0000201A
:1024B00000401C4600401CC63C000020400000209C
:1024C00044000020E4240008000000205400000024
:1024D000BC1900083825000854000020CC04000076
:1024E000CC190008000000000000000000000000FF
:1024F00000000000000000000000000001020304D2
:1025000001020304060708090000000000000000A3
:1025100000000000000000000000000000000000BB
:102520000000704200002041000000000000000098
:082530000000000000000000A3
:040000050800018965
:00000001FF
